{
  "contractName": "Voting",
  "abi": [
    {
      "constant": true,
      "inputs": [
        {
          "name": "",
          "type": "uint256"
        }
      ],
      "name": "proposals",
      "outputs": [
        {
          "name": "name",
          "type": "bytes32"
        },
        {
          "name": "voteCount",
          "type": "uint256"
        }
      ],
      "payable": false,
      "stateMutability": "view",
      "type": "function"
    },
    {
      "constant": true,
      "inputs": [],
      "name": "name",
      "outputs": [
        {
          "name": "",
          "type": "string"
        }
      ],
      "payable": false,
      "stateMutability": "view",
      "type": "function"
    },
    {
      "constant": true,
      "inputs": [],
      "name": "totalVoteCount",
      "outputs": [
        {
          "name": "",
          "type": "uint256"
        }
      ],
      "payable": false,
      "stateMutability": "view",
      "type": "function"
    },
    {
      "constant": true,
      "inputs": [
        {
          "name": "",
          "type": "address"
        }
      ],
      "name": "voters",
      "outputs": [
        {
          "name": "voted",
          "type": "bool"
        },
        {
          "name": "vote",
          "type": "bytes32"
        }
      ],
      "payable": false,
      "stateMutability": "view",
      "type": "function"
    },
    {
      "constant": true,
      "inputs": [],
      "name": "website",
      "outputs": [
        {
          "name": "",
          "type": "string"
        }
      ],
      "payable": false,
      "stateMutability": "view",
      "type": "function"
    },
    {
      "constant": true,
      "inputs": [],
      "name": "logo",
      "outputs": [
        {
          "name": "",
          "type": "string"
        }
      ],
      "payable": false,
      "stateMutability": "view",
      "type": "function"
    },
    {
      "inputs": [
        {
          "name": "proposalsNames",
          "type": "bytes32[]"
        }
      ],
      "payable": false,
      "stateMutability": "nonpayable",
      "type": "constructor"
    },
    {
      "anonymous": false,
      "inputs": [
        {
          "indexed": false,
          "name": "voter",
          "type": "address"
        },
        {
          "indexed": false,
          "name": "proposal",
          "type": "bytes32"
        }
      ],
      "name": "Voted",
      "type": "event"
    },
    {
      "constant": true,
      "inputs": [],
      "name": "getProposals",
      "outputs": [
        {
          "name": "",
          "type": "bytes32[]"
        }
      ],
      "payable": false,
      "stateMutability": "view",
      "type": "function"
    },
    {
      "constant": false,
      "inputs": [
        {
          "name": "proposal",
          "type": "bytes32"
        }
      ],
      "name": "vote",
      "outputs": [],
      "payable": false,
      "stateMutability": "nonpayable",
      "type": "function"
    },
    {
      "constant": true,
      "inputs": [
        {
          "name": "voter",
          "type": "address"
        }
      ],
      "name": "hasVoted",
      "outputs": [
        {
          "name": "",
          "type": "bool"
        }
      ],
      "payable": false,
      "stateMutability": "view",
      "type": "function"
    },
    {
      "constant": true,
      "inputs": [
        {
          "name": "voter",
          "type": "address"
        }
      ],
      "name": "getVote",
      "outputs": [
        {
          "name": "",
          "type": "bytes32"
        }
      ],
      "payable": false,
      "stateMutability": "view",
      "type": "function"
    },
    {
      "constant": true,
      "inputs": [
        {
          "name": "proposal",
          "type": "bytes32"
        }
      ],
      "name": "getProposalVoteCount",
      "outputs": [
        {
          "name": "",
          "type": "uint256"
        }
      ],
      "payable": false,
      "stateMutability": "view",
      "type": "function"
    },
    {
      "constant": true,
      "inputs": [],
      "name": "getLeader",
      "outputs": [
        {
          "name": "",
          "type": "bytes32"
        }
      ],
      "payable": false,
      "stateMutability": "view",
      "type": "function"
    }
  ],
  "bytecode": "0x60806040523480156200001157600080fd5b5060405162000fdb38038062000fdb833981018060405281019080805182019291905050506040805190810160405280601d81526020017f426c6f636b636861696e20446576656c6f70657273204d6f6c646f7661000000815250606060405190810160405280602f81526020017f68747470733a2f2f7777772e66616365626f6f6b2e636f6d2f67726f7570732f81526020017f3539323035373233313137343732320000000000000000000000000000000000815250606060405190810160405280603181526020017f68747470733a2f2f61766174617273332e67697468756275736572636f6e746581526020017f6e742e636f6d2f752f3338373334343831000000000000000000000000000000815250836000808251111515620001a2576040517f08c379a000000000000000000000000000000000000000000000000000000000815260040180806020018281038252601f8152602001807f596f75206d7573742070726f7669646520736f6d652070726f706f73616c730081525060200191505060405180910390fd5b8460009080519060200190620001ba929190620002ab565b508360019080519060200190620001d3929190620002ab565b508260029080519060200190620001ec929190620002ab565b505b815181101562000238576200022a82828151811015156200020b57fe5b9060200190602002015162000244640100000000026401000000009004565b8080600101915050620001ee565b5050505050506200035a565b6005604080519081016040528083600019168152602001600081525090806001815401808255809150509060018203906000526020600020906002020160009091929091909150600082015181600001906000191690556020820151816001015550505050565b828054600181600116156101000203166002900490600052602060002090601f016020900481019282601f10620002ee57805160ff19168380011785556200031f565b828001600101855582156200031f579182015b828111156200031e57825182559160200191906001019062000301565b5b5090506200032e919062000332565b5090565b6200035791905b808211156200035357600081600090555060010162000339565b5090565b90565b610c71806200036a6000396000f3006080604052600436106100ba576000357c0100000000000000000000000000000000000000000000000000000000900463ffffffff168063013cf08b146100bf57806306fdde031461010f57806309eef43e1461019f57806326082e72146101fa5780634c051f141461023f57806362564c4814610272578063893d8f4c146102de5780638d337b8114610309578063a3ec138d14610368578063a69beaba146103d2578063beb0a41614610403578063fb7f21eb14610493575b600080fd5b3480156100cb57600080fd5b506100ea60048036038101908080359060200190929190505050610523565b6040518083600019166000191681526020018281526020019250505060405180910390f35b34801561011b57600080fd5b50610124610556565b6040518080602001828103825283818151815260200191508051906020019080838360005b83811015610164578082015181840152602081019050610149565b50505050905090810190601f1680156101915780820380516001836020036101000a031916815260200191505b509250505060405180910390f35b3480156101ab57600080fd5b506101e0600480360381019080803573ffffffffffffffffffffffffffffffffffffffff1690602001909291905050506105f4565b604051808215151515815260200191505060405180910390f35b34801561020657600080fd5b506102296004803603810190808035600019169060200190929190505050610684565b6040518082815260200191505060405180910390f35b34801561024b57600080fd5b50610254610690565b60405180826000191660001916815260200191505060405180910390f35b34801561027e57600080fd5b5061028761073d565b6040518080602001828103825283818151815260200191508051906020019060200280838360005b838110156102ca5780820151818401526020810190506102af565b505050509050019250505060405180910390f35b3480156102ea57600080fd5b506102f36107e7565b6040518082815260200191505060405180910390f35b34801561031557600080fd5b5061034a600480360381019080803573ffffffffffffffffffffffffffffffffffffffff1690602001909291905050506107ed565b60405180826000191660001916815260200191505060405180910390f35b34801561037457600080fd5b506103a9600480360381019080803573ffffffffffffffffffffffffffffffffffffffff16906020019092919050505061088d565b604051808315151515815260200182600019166000191681526020019250505060405180910390f35b3480156103de57600080fd5b5061040160048036038101908080356000191690602001909291905050506108be565b005b34801561040f57600080fd5b50610418610a0f565b6040518080602001828103825283818151815260200191508051906020019080838360005b8381101561045857808201518184015260208101905061043d565b50505050905090810190601f1680156104855780820380516001836020036101000a031916815260200191505b509250505060405180910390f35b34801561049f57600080fd5b506104a8610aad565b6040518080602001828103825283818151815260200191508051906020019080838360005b838110156104e85780820151818401526020810190506104cd565b50505050905090810190601f1680156105155780820380516001836020036101000a031916815260200191505b509250505060405180910390f35b60058181548110151561053257fe5b90600052602060002090600202016000915090508060000154908060010154905082565b60008054600181600116156101000203166002900480601f0160208091040260200160405190810160405280929190818152602001828054600181600116156101000203166002900480156105ec5780601f106105c1576101008083540402835291602001916105ec565b820191906000526020600020905b8154815290600101906020018083116105cf57829003601f168201915b505050505081565b60006105fe610c26565b600460008473ffffffffffffffffffffffffffffffffffffffff1673ffffffffffffffffffffffffffffffffffffffff1681526020019081526020016000206040805190810160405290816000820160009054906101000a900460ff16151515158152602001600182015460001916600019168152505090508060000151915050919050565b60006003549050919050565b60008060008060009150600090505b6005805490508160ff1610156107345760058160ff168154811015156106c157fe5b9060005260206000209060020201600101548210156107275760058160ff168154811015156106ec57fe5b906000526020600020906002020160010154915060058160ff1681548110151561071257fe5b90600052602060002090600202016000015492505b808060010191505061069f565b82935050505090565b60608060006005805490506040519080825280602002602001820160405280156107765781602001602082028038833980820191505090505b509150600090505b6005805490508110156107df5760058181548110151561079a57fe5b90600052602060002090600202016000015482828151811015156107ba57fe5b906020019060200201906000191690816000191681525050808060010191505061077e565b819250505090565b60035481565b60006107f7610c26565b600460008473ffffffffffffffffffffffffffffffffffffffff1673ffffffffffffffffffffffffffffffffffffffff1681526020019081526020016000206040805190810160405290816000820160009054906101000a900460ff16151515158152602001600182015460001916600019168152505090508060000151151561088057600080fd5b8060200151915050919050565b60046020528060005260406000206000915090508060000160009054906101000a900460ff16908060010154905082565b60008060056108cc84610b4b565b8154811015156108d857fe5b90600052602060002090600202019150600460003373ffffffffffffffffffffffffffffffffffffffff1673ffffffffffffffffffffffffffffffffffffffff16815260200190815260200160002090508060000160009054906101000a900460ff1615151561094757600080fd5b7fc78796858497f000f0a77d7f0c624bbaf635bf26239188e8fba52c571db2398d3384604051808373ffffffffffffffffffffffffffffffffffffffff1673ffffffffffffffffffffffffffffffffffffffff16815260200182600019166000191681526020019250505060405180910390a160018160000160006101000a81548160ff021916908315150217905550828160010181600019169055508160010160008154809291906001019190505550600360008154809291906001019190505550505050565b60018054600181600116156101000203166002900480601f016020809104026020016040519081016040528092919081815260200182805460018160011615610100020316600290048015610aa55780601f10610a7a57610100808354040283529160200191610aa5565b820191906000526020600020905b815481529060010190602001808311610a8857829003601f168201915b505050505081565b60028054600181600116156101000203166002900480601f016020809104026020016040519081016040528092919081815260200182805460018160011615610100020316600290048015610b435780601f10610b1857610100808354040283529160200191610b43565b820191906000526020600020905b815481529060010190602001808311610b2657829003601f168201915b505050505081565b60008060005b600580549050811015610ba7578360001916600582815481101515610b7257fe5b906000526020600020906002020160000154600019161415610b9a5760019150809250610ba7565b8080600101915050610b51565b811515610c1c576040517f08c379a00000000000000000000000000000000000000000000000000000000081526004018080602001828103825260108152602001807f4e6f20737563682070726f706f73616c0000000000000000000000000000000081525060200191505060405180910390fd5b8292505050919050565b60408051908101604052806000151581526020016000801916815250905600a165627a7a72305820f767ce9fffc40ab8b60f5c7a1a6ed1aac2afa01f4698da802784819ca2aad9030029",
  "source": "pragma solidity ^0.4.23;\r\n\r\nimport './Stage1.sol';\r\n// import './Stage2.sol';\r\n//import './Stage3.sol';\r\n\r\ncontract Voting is\r\n  Stage1/*,\r\n  /*Stage2/*,\r\n  Stage3*/\r\n{\r\n  using SafeMath for uint256;\r\n\r\n  constructor(bytes32[] proposalsNames)\r\n    Stage1(\r\n      'Blockchain Developers Moldova', // name\r\n      'https://www.facebook.com/groups/592057231174722', // website\r\n      'https://avatars3.githubusercontent.com/u/38734481', // logo\r\n      proposalsNames // available proposals\r\n    )\r\n    // Stage2(\r\n    //   1525132800, // start time\r\n    //   1527811200 // end time\r\n    // )\r\n    public\r\n  {\r\n      // @todo your code\r\n  }\r\n\r\n  /** Stage 1 */\r\n\r\n  function getProposals() view public returns (bytes32[]) {\r\n      bytes32[] memory names = new bytes32[](proposals.length);\r\n      for (uint256 i = 0; i < proposals.length; i++) {\r\n        names[i] = proposals[i].name;\r\n      }\r\n      return names;\r\n  }\r\n\r\n  function vote(bytes32 proposal) public {\r\n    \r\n    Proposal storage p = proposals[getProposalRef(proposal)];\r\n    Voter storage voter = voters[msg.sender];\r\n    require(!voter.voted);\r\n\r\n    emit Voted(msg.sender, proposal);\r\n    \r\n    voter.voted = true;\r\n    voter.vote = proposal;\r\n\r\n    p.voteCount++;\r\n\r\n    totalVoteCount++;\r\n  }\r\n\r\n  function hasVoted(address voter) view public returns (bool) {\r\n    Voter memory v = voters[voter];\r\n    return v.voted;\r\n  }\r\n\r\n  function getVote(address voter) view public returns (bytes32) {\r\n    Voter memory v = voters[voter];\r\n    require(v.voted);\r\n    return v.vote;\r\n  }\r\n\r\n  function getProposalVoteCount(bytes32 proposal) view public returns (uint256) {\r\n    return totalVoteCount;\r\n  }\r\n\r\n  function getLeader() view public returns (bytes32) {\r\n    bytes32 max;\r\n    uint256 maxNr = 0;\r\n    for (var i = 0; i < proposals.length; i++) {\r\n      if (maxNr < proposals[i].voteCount) {\r\n        maxNr = proposals[i].voteCount;\r\n        max = proposals[i].name;\r\n      }\r\n    }\r\n    return max;\r\n  }\r\n\r\n  /** Stage 2 */\r\n\r\n  // @todo your code\r\n\r\n  /** Stage 3 */\r\n\r\n  // function delegateVote(address delegateTo) public {\r\n  //   // @todo your code\r\n  // }\r\n\r\n  // function approveDelegation() public {\r\n  //   // @todo your code\r\n  // }\r\n}\r\n",
  "sourcePath": "/home/eugenius/projects/ethereum/seed/contracts/Voting.sol",
  "compiler": {
    "name": "solc",
    "version": "0.4.23+commit.124ca40d.Emscripten.clang"
  },
  "schemaVersion": "2.0.0",
  "updatedAt": "2018-04-29T12:10:00.343Z"
}